{
  "_format": "hh-sol-artifact-1",
  "contractName": "Election",
  "sourceName": "contracts/Election.sol",
  "abi": [
    {
      "inputs": [],
      "stateMutability": "nonpayable",
      "type": "constructor"
    },
    {
      "inputs": [
        {
          "internalType": "string",
          "name": "name",
          "type": "string"
        },
        {
          "internalType": "string",
          "name": "description",
          "type": "string"
        },
        {
          "internalType": "string",
          "name": "imgHash",
          "type": "string"
        },
        {
          "internalType": "string",
          "name": "email",
          "type": "string"
        }
      ],
      "name": "addCandidate",
      "outputs": [],
      "stateMutability": "nonpayable",
      "type": "function"
    },
    {
      "inputs": [
        {
          "internalType": "uint8",
          "name": "",
          "type": "uint8"
        }
      ],
      "name": "candidates",
      "outputs": [
        {
          "internalType": "string",
          "name": "candidate_name",
          "type": "string"
        },
        {
          "internalType": "string",
          "name": "candidate_description",
          "type": "string"
        },
        {
          "internalType": "string",
          "name": "imgHash",
          "type": "string"
        },
        {
          "internalType": "uint8",
          "name": "voteCount",
          "type": "uint8"
        },
        {
          "internalType": "string",
          "name": "email",
          "type": "string"
        }
      ],
      "stateMutability": "view",
      "type": "function"
    },
    {
      "inputs": [
        {
          "internalType": "uint8",
          "name": "candidateID",
          "type": "uint8"
        }
      ],
      "name": "getCandidate",
      "outputs": [
        {
          "internalType": "string",
          "name": "",
          "type": "string"
        },
        {
          "internalType": "string",
          "name": "",
          "type": "string"
        },
        {
          "internalType": "string",
          "name": "",
          "type": "string"
        },
        {
          "internalType": "uint8",
          "name": "",
          "type": "uint8"
        },
        {
          "internalType": "string",
          "name": "",
          "type": "string"
        }
      ],
      "stateMutability": "view",
      "type": "function"
    },
    {
      "inputs": [],
      "name": "getNumOfCandidates",
      "outputs": [
        {
          "internalType": "uint8",
          "name": "",
          "type": "uint8"
        }
      ],
      "stateMutability": "view",
      "type": "function"
    },
    {
      "inputs": [],
      "name": "getNumOfVoters",
      "outputs": [
        {
          "internalType": "uint8",
          "name": "",
          "type": "uint8"
        }
      ],
      "stateMutability": "view",
      "type": "function"
    },
    {
      "inputs": [
        {
          "internalType": "uint8",
          "name": "candidateID",
          "type": "uint8"
        },
        {
          "internalType": "string",
          "name": "e",
          "type": "string"
        }
      ],
      "name": "vote",
      "outputs": [],
      "stateMutability": "nonpayable",
      "type": "function"
    },
    {
      "inputs": [],
      "name": "winnerCandidate",
      "outputs": [
        {
          "internalType": "uint8",
          "name": "",
          "type": "uint8"
        }
      ],
      "stateMutability": "view",
      "type": "function"
    }
  ],
  "bytecode": "0x608060405234801561001057600080fd5b5033600060036101000a81548173ffffffffffffffffffffffffffffffffffffffff021916908373ffffffffffffffffffffffffffffffffffffffff160217905550611403806100616000396000f3fe608060405234801561001057600080fd5b506004361061007d5760003560e01c8063a15148d11161005b578063a15148d1146100f0578063b224c40a1461010e578063cde9370f1461012a578063e8685ba11461015e5761007d565b806342b03cc91461008257806365fc783c1461009e5780636d6277f4146100bc575b600080fd5b61009c60048036038101906100979190610c8b565b61017c565b005b6100a661036e565b6040516100b39190610d7e565b60405180910390f35b6100d660048036038101906100d19190610dc5565b610384565b6040516100e7959493929190610e71565b60405180910390f35b6100f86105e7565b6040516101059190610d7e565b60405180910390f35b61012860048036038101906101239190610ee0565b6106bb565b005b610144600480360381019061013f9190610dc5565b610835565b604051610155959493929190610e71565b60405180910390f35b610166610b1b565b6040516101739190610d7e565b60405180910390f35b3373ffffffffffffffffffffffffffffffffffffffff16600060039054906101000a900473ffffffffffffffffffffffffffffffffffffffff1673ffffffffffffffffffffffffffffffffffffffff161461020c576040517f08c379a000000000000000000000000000000000000000000000000000000000815260040161020390610fae565b60405180910390fd5b83600160008060019054906101000a900460ff1660ff1660ff168152602001908152602001600020600001908161024391906111e4565b5082600160008060019054906101000a900460ff1660ff1660ff168152602001908152602001600020600101908161027b91906111e4565b5081600160008060019054906101000a900460ff1660ff1660ff16815260200190815260200160002060020190816102b391906111e4565b5080600160008060019054906101000a900460ff1660ff1660ff16815260200190815260200160002060040190816102eb91906111e4565b506000600160008060019054906101000a900460ff1660ff1660ff16815260200190815260200160002060030160006101000a81548160ff021916908360ff1602179055506000600181819054906101000a900460ff168092919061034f906112e5565b91906101000a81548160ff021916908360ff1602179055505050505050565b60008060029054906101000a900460ff16905090565b60016020528060005260406000206000915090508060000180546103a790610ffd565b80601f01602080910402602001604051908101604052809291908181526020018280546103d390610ffd565b80156104205780601f106103f557610100808354040283529160200191610420565b820191906000526020600020905b81548152906001019060200180831161040357829003601f168201915b50505050509080600101805461043590610ffd565b80601f016020809104026020016040519081016040528092919081815260200182805461046190610ffd565b80156104ae5780601f10610483576101008083540402835291602001916104ae565b820191906000526020600020905b81548152906001019060200180831161049157829003601f168201915b5050505050908060020180546104c390610ffd565b80601f01602080910402602001604051908101604052809291908181526020018280546104ef90610ffd565b801561053c5780601f106105115761010080835404028352916020019161053c565b820191906000526020600020905b81548152906001019060200180831161051f57829003601f168201915b5050505050908060030160009054906101000a900460ff169080600401805461056490610ffd565b80601f016020809104026020016040519081016040528092919081815260200182805461059090610ffd565b80156105dd5780601f106105b2576101008083540402835291602001916105dd565b820191906000526020600020905b8154815290600101906020018083116105c057829003601f168201915b5050505050905085565b600080600160008060ff16815260200190815260200160002060030160009054906101000a900460ff169050600080600190505b600060019054906101000a900460ff1660ff168160ff1610156106b257600160008260ff1660ff16815260200190815260200160002060030160009054906101000a900460ff1660ff168360ff16101561069f57600160008260ff1660ff16815260200190815260200160002060030160009054906101000a900460ff1692508091505b80806106aa906112e5565b91505061061b565b50809250505090565b6002816040516106cb919061134a565b908152602001604051809103902060000160019054906101000a900460ff161561072a576040517f08c379a0000000000000000000000000000000000000000000000000000000008152600401610721906113ad565b60405180910390fd5b60405180604001604052808360ff16815260200160011515815250600282604051610755919061134a565b908152602001604051809103902060008201518160000160006101000a81548160ff021916908360ff16021790555060208201518160000160016101000a81548160ff0219169083151502179055509050506000600281819054906101000a900460ff16809291906107c6906112e5565b91906101000a81548160ff021916908360ff16021790555050600160008360ff1660ff168152602001908152602001600020600301600081819054906101000a900460ff1680929190610818906112e5565b91906101000a81548160ff021916908360ff160217905550505050565b606080606060006060600160008760ff1660ff168152602001908152602001600020600001600160008860ff1660ff168152602001908152602001600020600101600160008960ff1660ff168152602001908152602001600020600201600160008a60ff1660ff16815260200190815260200160002060030160009054906101000a900460ff16600160008b60ff1660ff1681526020019081526020016000206004018480546108e490610ffd565b80601f016020809104026020016040519081016040528092919081815260200182805461091090610ffd565b801561095d5780601f106109325761010080835404028352916020019161095d565b820191906000526020600020905b81548152906001019060200180831161094057829003601f168201915b5050505050945083805461097090610ffd565b80601f016020809104026020016040519081016040528092919081815260200182805461099c90610ffd565b80156109e95780601f106109be576101008083540402835291602001916109e9565b820191906000526020600020905b8154815290600101906020018083116109cc57829003601f168201915b505050505093508280546109fc90610ffd565b80601f0160208091040260200160405190810160405280929190818152602001828054610a2890610ffd565b8015610a755780601f10610a4a57610100808354040283529160200191610a75565b820191906000526020600020905b815481529060010190602001808311610a5857829003601f168201915b50505050509250808054610a8890610ffd565b80601f0160208091040260200160405190810160405280929190818152602001828054610ab490610ffd565b8015610b015780601f10610ad657610100808354040283529160200191610b01565b820191906000526020600020905b815481529060010190602001808311610ae457829003601f168201915b505050505090509450945094509450945091939590929450565b60008060019054906101000a900460ff16905090565b6000604051905090565b600080fd5b600080fd5b600080fd5b600080fd5b6000601f19601f8301169050919050565b7f4e487b7100000000000000000000000000000000000000000000000000000000600052604160045260246000fd5b610b9882610b4f565b810181811067ffffffffffffffff82111715610bb757610bb6610b60565b5b80604052505050565b6000610bca610b31565b9050610bd68282610b8f565b919050565b600067ffffffffffffffff821115610bf657610bf5610b60565b5b610bff82610b4f565b9050602081019050919050565b82818337600083830152505050565b6000610c2e610c2984610bdb565b610bc0565b905082815260208101848484011115610c4a57610c49610b4a565b5b610c55848285610c0c565b509392505050565b600082601f830112610c7257610c71610b45565b5b8135610c82848260208601610c1b565b91505092915050565b60008060008060808587031215610ca557610ca4610b3b565b5b600085013567ffffffffffffffff811115610cc357610cc2610b40565b5b610ccf87828801610c5d565b945050602085013567ffffffffffffffff811115610cf057610cef610b40565b5b610cfc87828801610c5d565b935050604085013567ffffffffffffffff811115610d1d57610d1c610b40565b5b610d2987828801610c5d565b925050606085013567ffffffffffffffff811115610d4a57610d49610b40565b5b610d5687828801610c5d565b91505092959194509250565b600060ff82169050919050565b610d7881610d62565b82525050565b6000602082019050610d936000830184610d6f565b92915050565b610da281610d62565b8114610dad57600080fd5b50565b600081359050610dbf81610d99565b92915050565b600060208284031215610ddb57610dda610b3b565b5b6000610de984828501610db0565b91505092915050565b600081519050919050565b600082825260208201905092915050565b60005b83811015610e2c578082015181840152602081019050610e11565b60008484015250505050565b6000610e4382610df2565b610e4d8185610dfd565b9350610e5d818560208601610e0e565b610e6681610b4f565b840191505092915050565b600060a0820190508181036000830152610e8b8188610e38565b90508181036020830152610e9f8187610e38565b90508181036040830152610eb38186610e38565b9050610ec26060830185610d6f565b8181036080830152610ed48184610e38565b90509695505050505050565b60008060408385031215610ef757610ef6610b3b565b5b6000610f0585828601610db0565b925050602083013567ffffffffffffffff811115610f2657610f25610b40565b5b610f3285828601610c5d565b9150509250929050565b7f4f6e6c792043686169726d616e2063616e2061646420612063616e646964617460008201527f6500000000000000000000000000000000000000000000000000000000000000602082015250565b6000610f98602183610dfd565b9150610fa382610f3c565b604082019050919050565b60006020820190508181036000830152610fc781610f8b565b9050919050565b7f4e487b7100000000000000000000000000000000000000000000000000000000600052602260045260246000fd5b6000600282049050600182168061101557607f821691505b60208210810361102857611027610fce565b5b50919050565b60008190508160005260206000209050919050565b60006020601f8301049050919050565b600082821b905092915050565b6000600883026110907fffffffffffffffffffffffffffffffffffffffffffffffffffffffffffffffff82611053565b61109a8683611053565b95508019841693508086168417925050509392505050565b6000819050919050565b6000819050919050565b60006110e16110dc6110d7846110b2565b6110bc565b6110b2565b9050919050565b6000819050919050565b6110fb836110c6565b61110f611107826110e8565b848454611060565b825550505050565b600090565b611124611117565b61112f8184846110f2565b505050565b5b818110156111535761114860008261111c565b600181019050611135565b5050565b601f821115611198576111698161102e565b61117284611043565b81016020851015611181578190505b61119561118d85611043565b830182611134565b50505b505050565b600082821c905092915050565b60006111bb6000198460080261119d565b1980831691505092915050565b60006111d483836111aa565b9150826002028217905092915050565b6111ed82610df2565b67ffffffffffffffff81111561120657611205610b60565b5b6112108254610ffd565b61121b828285611157565b600060209050601f83116001811461124e576000841561123c578287015190505b61124685826111c8565b8655506112ae565b601f19841661125c8661102e565b60005b828110156112845784890151825560018201915060208501945060208101905061125f565b868310156112a1578489015161129d601f8916826111aa565b8355505b6001600288020188555050505b505050505050565b7f4e487b7100000000000000000000000000000000000000000000000000000000600052601160045260246000fd5b60006112f082610d62565b915060ff8203611303576113026112b6565b5b600182019050919050565b600081905092915050565b600061132482610df2565b61132e818561130e565b935061133e818560208601610e0e565b80840191505092915050565b60006113568284611319565b915081905092915050565b7f4572726f723a596f752063616e6e6f7420646f75626c6520766f746500000000600082015250565b6000611397601c83610dfd565b91506113a282611361565b602082019050919050565b600060208201905081810360008301526113c68161138a565b905091905056fea26469706673582212205f27a7155549f3877ea9921ee8c23565b5a67563f5a392d0207b5dde02092b7264736f6c63430008110033",
  "linkReferences": {},
  "deployedLinkReferences": {}
}