{
  "_format": "hh-sol-artifact-1",
  "contractName": "Election",
  "sourceName": "contracts/Election.sol",
  "abi": [
    {
      "inputs": [],
      "stateMutability": "nonpayable",
      "type": "constructor"
    },
    {
      "inputs": [
        {
          "internalType": "string",
          "name": "name",
          "type": "string"
        },
        {
          "internalType": "string",
          "name": "description",
          "type": "string"
        },
        {
          "internalType": "string",
          "name": "imgHash",
          "type": "string"
        }
      ],
      "name": "addCandidate",
      "outputs": [],
      "stateMutability": "nonpayable",
      "type": "function"
    },
    {
      "inputs": [
        {
          "internalType": "uint8",
          "name": "candidateID",
          "type": "uint8"
        }
      ],
      "name": "getCandidate",
      "outputs": [
        {
          "components": [
            {
              "internalType": "string",
              "name": "candidate_name",
              "type": "string"
            },
            {
              "internalType": "string",
              "name": "candidate_description",
              "type": "string"
            },
            {
              "internalType": "string",
              "name": "imgHash",
              "type": "string"
            },
            {
              "internalType": "uint8",
              "name": "voteCount",
              "type": "uint8"
            },
            {
              "internalType": "uint8",
              "name": "candidateID",
              "type": "uint8"
            }
          ],
          "internalType": "struct Election.Candidate",
          "name": "",
          "type": "tuple"
        }
      ],
      "stateMutability": "view",
      "type": "function"
    },
    {
      "inputs": [],
      "name": "getCandidates",
      "outputs": [
        {
          "components": [
            {
              "internalType": "string",
              "name": "candidate_name",
              "type": "string"
            },
            {
              "internalType": "string",
              "name": "candidate_description",
              "type": "string"
            },
            {
              "internalType": "string",
              "name": "imgHash",
              "type": "string"
            },
            {
              "internalType": "uint8",
              "name": "voteCount",
              "type": "uint8"
            },
            {
              "internalType": "uint8",
              "name": "candidateID",
              "type": "uint8"
            }
          ],
          "internalType": "struct Election.Candidate[]",
          "name": "",
          "type": "tuple[]"
        }
      ],
      "stateMutability": "view",
      "type": "function"
    },
    {
      "inputs": [],
      "name": "getChairman",
      "outputs": [
        {
          "internalType": "address",
          "name": "",
          "type": "address"
        }
      ],
      "stateMutability": "view",
      "type": "function"
    },
    {
      "inputs": [],
      "name": "getNumOfCandidates",
      "outputs": [
        {
          "internalType": "uint8",
          "name": "",
          "type": "uint8"
        }
      ],
      "stateMutability": "view",
      "type": "function"
    },
    {
      "inputs": [],
      "name": "getNumOfVoters",
      "outputs": [
        {
          "internalType": "uint8",
          "name": "",
          "type": "uint8"
        }
      ],
      "stateMutability": "view",
      "type": "function"
    },
    {
      "inputs": [
        {
          "internalType": "uint8",
          "name": "candidateID",
          "type": "uint8"
        }
      ],
      "name": "vote",
      "outputs": [],
      "stateMutability": "nonpayable",
      "type": "function"
    },
    {
      "inputs": [],
      "name": "winnerCandidate",
      "outputs": [
        {
          "components": [
            {
              "internalType": "string",
              "name": "candidate_name",
              "type": "string"
            },
            {
              "internalType": "string",
              "name": "candidate_description",
              "type": "string"
            },
            {
              "internalType": "string",
              "name": "imgHash",
              "type": "string"
            },
            {
              "internalType": "uint8",
              "name": "voteCount",
              "type": "uint8"
            },
            {
              "internalType": "uint8",
              "name": "candidateID",
              "type": "uint8"
            }
          ],
          "internalType": "struct Election.Candidate",
          "name": "",
          "type": "tuple"
        }
      ],
      "stateMutability": "view",
      "type": "function"
    }
  ],
  "bytecode": "0x608060405234801561001057600080fd5b5033600060036101000a81548173ffffffffffffffffffffffffffffffffffffffff021916908373ffffffffffffffffffffffffffffffffffffffff160217905550611771806100616000396000f3fe608060405234801561001057600080fd5b50600436106100885760003560e01c8063b3f98adc1161005b578063b3f98adc14610103578063cde9370f1461011f578063d64515571461014f578063e8685ba11461016d57610088565b806306a49fce1461008d57806365fc783c146100ab578063a15148d1146100c9578063ad71f8dc146100e7575b600080fd5b61009561018b565b6040516100a29190610f26565b60405180910390f35b6100b36103da565b6040516100c09190610f57565b60405180910390f35b6100d16103f0565b6040516100de9190610ff6565b60405180910390f35b61010160048036038101906100fc9190611161565b61070f565b005b61011d60048036038101906101189190611234565b6108ca565b005b61013960048036038101906101349190611234565b610a91565b6040516101469190610ff6565b60405180910390f35b610157610cc0565b60405161016491906112a2565b60405180910390f35b610175610ce9565b6040516101829190610f57565b60405180910390f35b60606001805480602002602001604051908101604052809291908181526020016000905b828210156103d157838290600052602060002090600402016040518060a00160405290816000820180546101e2906112ec565b80601f016020809104026020016040519081016040528092919081815260200182805461020e906112ec565b801561025b5780601f106102305761010080835404028352916020019161025b565b820191906000526020600020905b81548152906001019060200180831161023e57829003601f168201915b50505050508152602001600182018054610274906112ec565b80601f01602080910402602001604051908101604052809291908181526020018280546102a0906112ec565b80156102ed5780601f106102c2576101008083540402835291602001916102ed565b820191906000526020600020905b8154815290600101906020018083116102d057829003601f168201915b50505050508152602001600282018054610306906112ec565b80601f0160208091040260200160405190810160405280929190818152602001828054610332906112ec565b801561037f5780601f106103545761010080835404028352916020019161037f565b820191906000526020600020905b81548152906001019060200180831161036257829003601f168201915b505050505081526020016003820160009054906101000a900460ff1660ff1660ff1681526020016003820160019054906101000a900460ff1660ff1660ff1681525050815260200190600101906101af565b50505050905090565b60008060029054906101000a900460ff16905090565b6103f8610cff565b6000600160008154811061040f5761040e61131d565b5b906000526020600020906004020160030160009054906101000a900460ff169050600080600190505b600060019054906101000a900460ff1660ff168160ff1610156104e75760018160ff168154811061046c5761046b61131d565b5b906000526020600020906004020160030160009054906101000a900460ff1660ff168360ff1610156104d45760018160ff16815481106104af576104ae61131d565b5b906000526020600020906004020160030160009054906101000a900460ff1692508091505b80806104df9061137b565b915050610438565b5060018160ff16815481106104ff576104fe61131d565b5b90600052602060002090600402016040518060a0016040529081600082018054610528906112ec565b80601f0160208091040260200160405190810160405280929190818152602001828054610554906112ec565b80156105a15780601f10610576576101008083540402835291602001916105a1565b820191906000526020600020905b81548152906001019060200180831161058457829003601f168201915b505050505081526020016001820180546105ba906112ec565b80601f01602080910402602001604051908101604052809291908181526020018280546105e6906112ec565b80156106335780601f1061060857610100808354040283529160200191610633565b820191906000526020600020905b81548152906001019060200180831161061657829003601f168201915b5050505050815260200160028201805461064c906112ec565b80601f0160208091040260200160405190810160405280929190818152602001828054610678906112ec565b80156106c55780601f1061069a576101008083540402835291602001916106c5565b820191906000526020600020905b8154815290600101906020018083116106a857829003601f168201915b505050505081526020016003820160009054906101000a900460ff1660ff1660ff1681526020016003820160019054906101000a900460ff1660ff1660ff16815250509250505090565b3373ffffffffffffffffffffffffffffffffffffffff16600060039054906101000a900473ffffffffffffffffffffffffffffffffffffffff1673ffffffffffffffffffffffffffffffffffffffff161461079f576040517f08c379a000000000000000000000000000000000000000000000000000000000815260040161079690611427565b60405180910390fd5b60016040518060a00160405280858152602001848152602001838152602001600060ff168152602001600060019054906101000a900460ff1660ff168152509080600181540180825580915050600190039060005260206000209060040201600090919091909150600082015181600001908161081c91906115fd565b50602082015181600101908161083291906115fd565b50604082015181600201908161084891906115fd565b5060608201518160030160006101000a81548160ff021916908360ff16021790555060808201518160030160016101000a81548160ff021916908360ff16021790555050506000600181819054906101000a900460ff16809291906108ac9061137b565b91906101000a81548160ff021916908360ff16021790555050505050565b600260003373ffffffffffffffffffffffffffffffffffffffff1673ffffffffffffffffffffffffffffffffffffffff16815260200190815260200160002060000160019054906101000a900460ff161561095a576040517f08c379a00000000000000000000000000000000000000000000000000000000081526004016109519061171b565b60405180910390fd5b60405180604001604052808260ff16815260200160011515815250600260003373ffffffffffffffffffffffffffffffffffffffff1673ffffffffffffffffffffffffffffffffffffffff16815260200190815260200160002060008201518160000160006101000a81548160ff021916908360ff16021790555060208201518160000160016101000a81548160ff0219169083151502179055509050506000600281819054906101000a900460ff1680929190610a179061137b565b91906101000a81548160ff021916908360ff1602179055505060018160ff1681548110610a4757610a4661131d565b5b9060005260206000209060040201600301600081819054906101000a900460ff1680929190610a759061137b565b91906101000a81548160ff021916908360ff1602179055505050565b610a99610cff565b60018260ff1681548110610ab057610aaf61131d565b5b90600052602060002090600402016040518060a0016040529081600082018054610ad9906112ec565b80601f0160208091040260200160405190810160405280929190818152602001828054610b05906112ec565b8015610b525780601f10610b2757610100808354040283529160200191610b52565b820191906000526020600020905b815481529060010190602001808311610b3557829003601f168201915b50505050508152602001600182018054610b6b906112ec565b80601f0160208091040260200160405190810160405280929190818152602001828054610b97906112ec565b8015610be45780601f10610bb957610100808354040283529160200191610be4565b820191906000526020600020905b815481529060010190602001808311610bc757829003601f168201915b50505050508152602001600282018054610bfd906112ec565b80601f0160208091040260200160405190810160405280929190818152602001828054610c29906112ec565b8015610c765780601f10610c4b57610100808354040283529160200191610c76565b820191906000526020600020905b815481529060010190602001808311610c5957829003601f168201915b505050505081526020016003820160009054906101000a900460ff1660ff1660ff1681526020016003820160019054906101000a900460ff1660ff1660ff16815250509050919050565b60008060039054906101000a900473ffffffffffffffffffffffffffffffffffffffff16905090565b60008060019054906101000a900460ff16905090565b6040518060a00160405280606081526020016060815260200160608152602001600060ff168152602001600060ff1681525090565b600081519050919050565b600082825260208201905092915050565b6000819050602082019050919050565b600081519050919050565b600082825260208201905092915050565b60005b83811015610d9a578082015181840152602081019050610d7f565b60008484015250505050565b6000601f19601f8301169050919050565b6000610dc282610d60565b610dcc8185610d6b565b9350610ddc818560208601610d7c565b610de581610da6565b840191505092915050565b600060ff82169050919050565b610e0681610df0565b82525050565b600060a0830160008301518482036000860152610e298282610db7565b91505060208301518482036020860152610e438282610db7565b91505060408301518482036040860152610e5d8282610db7565b9150506060830151610e726060860182610dfd565b506080830151610e856080860182610dfd565b508091505092915050565b6000610e9c8383610e0c565b905092915050565b6000602082019050919050565b6000610ebc82610d34565b610ec68185610d3f565b935083602082028501610ed885610d50565b8060005b85811015610f145784840389528151610ef58582610e90565b9450610f0083610ea4565b925060208a01995050600181019050610edc565b50829750879550505050505092915050565b60006020820190508181036000830152610f408184610eb1565b905092915050565b610f5181610df0565b82525050565b6000602082019050610f6c6000830184610f48565b92915050565b600060a0830160008301518482036000860152610f8f8282610db7565b91505060208301518482036020860152610fa98282610db7565b91505060408301518482036040860152610fc38282610db7565b9150506060830151610fd86060860182610dfd565b506080830151610feb6080860182610dfd565b508091505092915050565b600060208201905081810360008301526110108184610f72565b905092915050565b6000604051905090565b600080fd5b600080fd5b600080fd5b600080fd5b7f4e487b7100000000000000000000000000000000000000000000000000000000600052604160045260246000fd5b61106e82610da6565b810181811067ffffffffffffffff8211171561108d5761108c611036565b5b80604052505050565b60006110a0611018565b90506110ac8282611065565b919050565b600067ffffffffffffffff8211156110cc576110cb611036565b5b6110d582610da6565b9050602081019050919050565b82818337600083830152505050565b60006111046110ff846110b1565b611096565b9050828152602081018484840111156111205761111f611031565b5b61112b8482856110e2565b509392505050565b600082601f8301126111485761114761102c565b5b81356111588482602086016110f1565b91505092915050565b60008060006060848603121561117a57611179611022565b5b600084013567ffffffffffffffff81111561119857611197611027565b5b6111a486828701611133565b935050602084013567ffffffffffffffff8111156111c5576111c4611027565b5b6111d186828701611133565b925050604084013567ffffffffffffffff8111156111f2576111f1611027565b5b6111fe86828701611133565b9150509250925092565b61121181610df0565b811461121c57600080fd5b50565b60008135905061122e81611208565b92915050565b60006020828403121561124a57611249611022565b5b60006112588482850161121f565b91505092915050565b600073ffffffffffffffffffffffffffffffffffffffff82169050919050565b600061128c82611261565b9050919050565b61129c81611281565b82525050565b60006020820190506112b76000830184611293565b92915050565b7f4e487b7100000000000000000000000000000000000000000000000000000000600052602260045260246000fd5b6000600282049050600182168061130457607f821691505b602082108103611317576113166112bd565b5b50919050565b7f4e487b7100000000000000000000000000000000000000000000000000000000600052603260045260246000fd5b7f4e487b7100000000000000000000000000000000000000000000000000000000600052601160045260246000fd5b600061138682610df0565b915060ff82036113995761139861134c565b5b600182019050919050565b600082825260208201905092915050565b7f4f6e6c792043686169726d616e2063616e2061646420612063616e646964617460008201527f6500000000000000000000000000000000000000000000000000000000000000602082015250565b60006114116021836113a4565b915061141c826113b5565b604082019050919050565b6000602082019050818103600083015261144081611404565b9050919050565b60008190508160005260206000209050919050565b60006020601f8301049050919050565b600082821b905092915050565b6000600883026114a97fffffffffffffffffffffffffffffffffffffffffffffffffffffffffffffffff8261146c565b6114b3868361146c565b95508019841693508086168417925050509392505050565b6000819050919050565b6000819050919050565b60006114fa6114f56114f0846114cb565b6114d5565b6114cb565b9050919050565b6000819050919050565b611514836114df565b61152861152082611501565b848454611479565b825550505050565b600090565b61153d611530565b61154881848461150b565b505050565b5b8181101561156c57611561600082611535565b60018101905061154e565b5050565b601f8211156115b15761158281611447565b61158b8461145c565b8101602085101561159a578190505b6115ae6115a68561145c565b83018261154d565b50505b505050565b600082821c905092915050565b60006115d4600019846008026115b6565b1980831691505092915050565b60006115ed83836115c3565b9150826002028217905092915050565b61160682610d60565b67ffffffffffffffff81111561161f5761161e611036565b5b61162982546112ec565b611634828285611570565b600060209050601f8311600181146116675760008415611655578287015190505b61165f85826115e1565b8655506116c7565b601f19841661167586611447565b60005b8281101561169d57848901518255600182019150602085019450602081019050611678565b868310156116ba57848901516116b6601f8916826115c3565b8355505b6001600288020188555050505b505050505050565b7f4572726f723a596f752063616e6e6f7420646f75626c6520766f746500000000600082015250565b6000611705601c836113a4565b9150611710826116cf565b602082019050919050565b60006020820190508181036000830152611734816116f8565b905091905056fea2646970667358221220183e104638370eae0065a07eb45d737e95d676e67dffba7d66cfb999b784ec2664736f6c63430008110033",
  "linkReferences": {},
  "deployedLinkReferences": {}
}