{
    "_format": "hh-sol-artifact-1",
    "contractName": "Election",
    "sourceName": "contracts/Election.sol",
    "abi": [
        {
            "inputs": [],
            "stateMutability": "nonpayable",
            "type": "constructor"
        },
        {
            "inputs": [
                {
                    "internalType": "string",
                    "name": "name",
                    "type": "string"
                },
                {
                    "internalType": "string",
                    "name": "description",
                    "type": "string"
                },
                {
                    "internalType": "string",
                    "name": "imgHash",
                    "type": "string"
                }
            ],
            "name": "addCandidate",
            "outputs": [],
            "stateMutability": "nonpayable",
            "type": "function"
        },
        {
            "inputs": [
                {
                    "internalType": "uint8",
                    "name": "",
                    "type": "uint8"
                }
            ],
            "name": "candidates",
            "outputs": [
                {
                    "internalType": "string",
                    "name": "candidate_name",
                    "type": "string"
                },
                {
                    "internalType": "string",
                    "name": "candidate_description",
                    "type": "string"
                },
                {
                    "internalType": "string",
                    "name": "imgHash",
                    "type": "string"
                },
                {
                    "internalType": "uint8",
                    "name": "voteCount",
                    "type": "uint8"
                },
                {
                    "internalType": "uint8",
                    "name": "candidateID",
                    "type": "uint8"
                }
            ],
            "stateMutability": "view",
            "type": "function"
        },
        {
            "inputs": [
                {
                    "internalType": "uint8",
                    "name": "candidateID",
                    "type": "uint8"
                }
            ],
            "name": "getCandidate",
            "outputs": [
                {
                    "components": [
                        {
                            "internalType": "string",
                            "name": "candidate_name",
                            "type": "string"
                        },
                        {
                            "internalType": "string",
                            "name": "candidate_description",
                            "type": "string"
                        },
                        {
                            "internalType": "string",
                            "name": "imgHash",
                            "type": "string"
                        },
                        {
                            "internalType": "uint8",
                            "name": "voteCount",
                            "type": "uint8"
                        },
                        {
                            "internalType": "uint8",
                            "name": "candidateID",
                            "type": "uint8"
                        }
                    ],
                    "internalType": "struct Election.Candidate",
                    "name": "",
                    "type": "tuple"
                }
            ],
            "stateMutability": "view",
            "type": "function"
        },
        {
            "inputs": [],
            "name": "getChairman",
            "outputs": [
                {
                    "internalType": "address",
                    "name": "",
                    "type": "address"
                }
            ],
            "stateMutability": "view",
            "type": "function"
        },
        {
            "inputs": [],
            "name": "getNumOfCandidates",
            "outputs": [
                {
                    "internalType": "uint8",
                    "name": "",
                    "type": "uint8"
                }
            ],
            "stateMutability": "view",
            "type": "function"
        },
        {
            "inputs": [],
            "name": "getNumOfVoters",
            "outputs": [
                {
                    "internalType": "uint8",
                    "name": "",
                    "type": "uint8"
                }
            ],
            "stateMutability": "view",
            "type": "function"
        },
        {
            "inputs": [
                {
                    "internalType": "uint8",
                    "name": "candidateID",
                    "type": "uint8"
                }
            ],
            "name": "vote",
            "outputs": [],
            "stateMutability": "nonpayable",
            "type": "function"
        },
        {
            "inputs": [],
            "name": "winnerCandidate",
            "outputs": [
                {
                    "components": [
                        {
                            "internalType": "string",
                            "name": "candidate_name",
                            "type": "string"
                        },
                        {
                            "internalType": "string",
                            "name": "candidate_description",
                            "type": "string"
                        },
                        {
                            "internalType": "string",
                            "name": "imgHash",
                            "type": "string"
                        },
                        {
                            "internalType": "uint8",
                            "name": "voteCount",
                            "type": "uint8"
                        },
                        {
                            "internalType": "uint8",
                            "name": "candidateID",
                            "type": "uint8"
                        }
                    ],
                    "internalType": "struct Election.Candidate",
                    "name": "",
                    "type": "tuple"
                }
            ],
            "stateMutability": "view",
            "type": "function"
        }
    ],
    "bytecode": "0x608060405234801561001057600080fd5b5033600060036101000a81548173ffffffffffffffffffffffffffffffffffffffff021916908373ffffffffffffffffffffffffffffffffffffffff1602179055506115de806100616000396000f3fe608060405234801561001057600080fd5b50600436106100885760003560e01c8063b3f98adc1161005b578063b3f98adc14610119578063cde9370f14610135578063d645155714610165578063e8685ba11461018357610088565b806365fc783c1461008d5780636d6277f4146100ab578063a15148d1146100df578063ad71f8dc146100fd575b600080fd5b6100956101a1565b6040516100a29190610cb3565b60405180910390f35b6100c560048036038101906100c09190610d0e565b6101b7565b6040516100d6959493929190610dcb565b60405180910390f35b6100e761039f565b6040516100f49190610f10565b60405180910390f35b61011760048036038101906101129190611067565b61068d565b005b610133600480360381019061012e9190610d0e565b610845565b005b61014f600480360381019061014a9190610d0e565b610a00565b60405161015c9190610f10565b60405180910390f35b61016d610c23565b60405161017a919061114f565b60405180910390f35b61018b610c4c565b6040516101989190610cb3565b60405180910390f35b60008060029054906101000a900460ff16905090565b60016020528060005260406000206000915090508060000180546101da90611199565b80601f016020809104026020016040519081016040528092919081815260200182805461020690611199565b80156102535780601f1061022857610100808354040283529160200191610253565b820191906000526020600020905b81548152906001019060200180831161023657829003601f168201915b50505050509080600101805461026890611199565b80601f016020809104026020016040519081016040528092919081815260200182805461029490611199565b80156102e15780601f106102b6576101008083540402835291602001916102e1565b820191906000526020600020905b8154815290600101906020018083116102c457829003601f168201915b5050505050908060020180546102f690611199565b80601f016020809104026020016040519081016040528092919081815260200182805461032290611199565b801561036f5780601f106103445761010080835404028352916020019161036f565b820191906000526020600020905b81548152906001019060200180831161035257829003601f168201915b5050505050908060030160009054906101000a900460ff16908060030160019054906101000a900460ff16905085565b6103a7610c62565b6000600160008060ff16815260200190815260200160002060030160009054906101000a900460ff169050600080600190505b600060019054906101000a900460ff1660ff168160ff16101561047157600160008260ff1660ff16815260200190815260200160002060030160009054906101000a900460ff1660ff168360ff16101561045e57600160008260ff1660ff16815260200190815260200160002060030160009054906101000a900460ff1692508091505b8080610469906111f9565b9150506103da565b50600160008260ff1660ff1681526020019081526020016000206040518060a00160405290816000820180546104a690611199565b80601f01602080910402602001604051908101604052809291908181526020018280546104d290611199565b801561051f5780601f106104f45761010080835404028352916020019161051f565b820191906000526020600020905b81548152906001019060200180831161050257829003601f168201915b5050505050815260200160018201805461053890611199565b80601f016020809104026020016040519081016040528092919081815260200182805461056490611199565b80156105b15780601f10610586576101008083540402835291602001916105b1565b820191906000526020600020905b81548152906001019060200180831161059457829003601f168201915b505050505081526020016002820180546105ca90611199565b80601f01602080910402602001604051908101604052809291908181526020018280546105f690611199565b80156106435780601f1061061857610100808354040283529160200191610643565b820191906000526020600020905b81548152906001019060200180831161062657829003601f168201915b505050505081526020016003820160009054906101000a900460ff1660ff1660ff1681526020016003820160019054906101000a900460ff1660ff1660ff16815250509250505090565b3373ffffffffffffffffffffffffffffffffffffffff16600060039054906101000a900473ffffffffffffffffffffffffffffffffffffffff1673ffffffffffffffffffffffffffffffffffffffff161461071d576040517f08c379a000000000000000000000000000000000000000000000000000000000815260040161071490611294565b60405180910390fd5b6040518060a00160405280848152602001838152602001828152602001600060ff168152602001600060019054906101000a900460ff1660ff16815250600160008060019054906101000a900460ff1660ff1660ff1681526020019081526020016000206000820151816000019081610796919061146a565b5060208201518160010190816107ac919061146a565b5060408201518160020190816107c2919061146a565b5060608201518160030160006101000a81548160ff021916908360ff16021790555060808201518160030160016101000a81548160ff021916908360ff1602179055509050506000600181819054906101000a900460ff1680929190610827906111f9565b91906101000a81548160ff021916908360ff16021790555050505050565b600260003373ffffffffffffffffffffffffffffffffffffffff1673ffffffffffffffffffffffffffffffffffffffff16815260200190815260200160002060000160019054906101000a900460ff16156108d5576040517f08c379a00000000000000000000000000000000000000000000000000000000081526004016108cc90611588565b60405180910390fd5b60405180604001604052808260ff16815260200160011515815250600260003373ffffffffffffffffffffffffffffffffffffffff1673ffffffffffffffffffffffffffffffffffffffff16815260200190815260200160002060008201518160000160006101000a81548160ff021916908360ff16021790555060208201518160000160016101000a81548160ff0219169083151502179055509050506000600281819054906101000a900460ff1680929190610992906111f9565b91906101000a81548160ff021916908360ff16021790555050600160008260ff1660ff168152602001908152602001600020600301600081819054906101000a900460ff16809291906109e4906111f9565b91906101000a81548160ff021916908360ff1602179055505050565b610a08610c62565b600160008360ff1660ff1681526020019081526020016000206040518060a0016040529081600082018054610a3c90611199565b80601f0160208091040260200160405190810160405280929190818152602001828054610a6890611199565b8015610ab55780601f10610a8a57610100808354040283529160200191610ab5565b820191906000526020600020905b815481529060010190602001808311610a9857829003601f168201915b50505050508152602001600182018054610ace90611199565b80601f0160208091040260200160405190810160405280929190818152602001828054610afa90611199565b8015610b475780601f10610b1c57610100808354040283529160200191610b47565b820191906000526020600020905b815481529060010190602001808311610b2a57829003601f168201915b50505050508152602001600282018054610b6090611199565b80601f0160208091040260200160405190810160405280929190818152602001828054610b8c90611199565b8015610bd95780601f10610bae57610100808354040283529160200191610bd9565b820191906000526020600020905b815481529060010190602001808311610bbc57829003601f168201915b505050505081526020016003820160009054906101000a900460ff1660ff1660ff1681526020016003820160019054906101000a900460ff1660ff1660ff16815250509050919050565b60008060039054906101000a900473ffffffffffffffffffffffffffffffffffffffff16905090565b60008060019054906101000a900460ff16905090565b6040518060a00160405280606081526020016060815260200160608152602001600060ff168152602001600060ff1681525090565b600060ff82169050919050565b610cad81610c97565b82525050565b6000602082019050610cc86000830184610ca4565b92915050565b6000604051905090565b600080fd5b600080fd5b610ceb81610c97565b8114610cf657600080fd5b50565b600081359050610d0881610ce2565b92915050565b600060208284031215610d2457610d23610cd8565b5b6000610d3284828501610cf9565b91505092915050565b600081519050919050565b600082825260208201905092915050565b60005b83811015610d75578082015181840152602081019050610d5a565b60008484015250505050565b6000601f19601f8301169050919050565b6000610d9d82610d3b565b610da78185610d46565b9350610db7818560208601610d57565b610dc081610d81565b840191505092915050565b600060a0820190508181036000830152610de58188610d92565b90508181036020830152610df98187610d92565b90508181036040830152610e0d8186610d92565b9050610e1c6060830185610ca4565b610e296080830184610ca4565b9695505050505050565b600082825260208201905092915050565b6000610e4f82610d3b565b610e598185610e33565b9350610e69818560208601610d57565b610e7281610d81565b840191505092915050565b610e8681610c97565b82525050565b600060a0830160008301518482036000860152610ea98282610e44565b91505060208301518482036020860152610ec38282610e44565b91505060408301518482036040860152610edd8282610e44565b9150506060830151610ef26060860182610e7d565b506080830151610f056080860182610e7d565b508091505092915050565b60006020820190508181036000830152610f2a8184610e8c565b905092915050565b600080fd5b600080fd5b7f4e487b7100000000000000000000000000000000000000000000000000000000600052604160045260246000fd5b610f7482610d81565b810181811067ffffffffffffffff82111715610f9357610f92610f3c565b5b80604052505050565b6000610fa6610cce565b9050610fb28282610f6b565b919050565b600067ffffffffffffffff821115610fd257610fd1610f3c565b5b610fdb82610d81565b9050602081019050919050565b82818337600083830152505050565b600061100a61100584610fb7565b610f9c565b90508281526020810184848401111561102657611025610f37565b5b611031848285610fe8565b509392505050565b600082601f83011261104e5761104d610f32565b5b813561105e848260208601610ff7565b91505092915050565b6000806000606084860312156110805761107f610cd8565b5b600084013567ffffffffffffffff81111561109e5761109d610cdd565b5b6110aa86828701611039565b935050602084013567ffffffffffffffff8111156110cb576110ca610cdd565b5b6110d786828701611039565b925050604084013567ffffffffffffffff8111156110f8576110f7610cdd565b5b61110486828701611039565b9150509250925092565b600073ffffffffffffffffffffffffffffffffffffffff82169050919050565b60006111398261110e565b9050919050565b6111498161112e565b82525050565b60006020820190506111646000830184611140565b92915050565b7f4e487b7100000000000000000000000000000000000000000000000000000000600052602260045260246000fd5b600060028204905060018216806111b157607f821691505b6020821081036111c4576111c361116a565b5b50919050565b7f4e487b7100000000000000000000000000000000000000000000000000000000600052601160045260246000fd5b600061120482610c97565b915060ff8203611217576112166111ca565b5b600182019050919050565b7f4f6e6c792043686169726d616e2063616e2061646420612063616e646964617460008201527f6500000000000000000000000000000000000000000000000000000000000000602082015250565b600061127e602183610d46565b915061128982611222565b604082019050919050565b600060208201905081810360008301526112ad81611271565b9050919050565b60008190508160005260206000209050919050565b60006020601f8301049050919050565b600082821b905092915050565b6000600883026113167fffffffffffffffffffffffffffffffffffffffffffffffffffffffffffffffff826112d9565b61132086836112d9565b95508019841693508086168417925050509392505050565b6000819050919050565b6000819050919050565b600061136761136261135d84611338565b611342565b611338565b9050919050565b6000819050919050565b6113818361134c565b61139561138d8261136e565b8484546112e6565b825550505050565b600090565b6113aa61139d565b6113b5818484611378565b505050565b5b818110156113d9576113ce6000826113a2565b6001810190506113bb565b5050565b601f82111561141e576113ef816112b4565b6113f8846112c9565b81016020851015611407578190505b61141b611413856112c9565b8301826113ba565b50505b505050565b600082821c905092915050565b600061144160001984600802611423565b1980831691505092915050565b600061145a8383611430565b9150826002028217905092915050565b61147382610d3b565b67ffffffffffffffff81111561148c5761148b610f3c565b5b6114968254611199565b6114a18282856113dd565b600060209050601f8311600181146114d457600084156114c2578287015190505b6114cc858261144e565b865550611534565b601f1984166114e2866112b4565b60005b8281101561150a578489015182556001820191506020850194506020810190506114e5565b868310156115275784890151611523601f891682611430565b8355505b6001600288020188555050505b505050505050565b7f4572726f723a596f752063616e6e6f7420646f75626c6520766f746500000000600082015250565b6000611572601c83610d46565b915061157d8261153c565b602082019050919050565b600060208201905081810360008301526115a181611565565b905091905056fea2646970667358221220a565e4e40d3747dc13490f83473a5546180d5ad33c6434e77b14f8400472288364736f6c63430008110033",
    "linkReferences": {},
    "deployedLinkReferences": {}
}